{
  "contractName": "ForwarderFactory",
  "abi": [
    {
      "anonymous": false,
      "inputs": [
        {
          "indexed": false,
          "internalType": "address",
          "name": "forwarderAddress",
          "type": "address"
        }
      ],
      "name": "ForwarderCreated",
      "type": "event"
    },
    {
      "inputs": [
        {
          "internalType": "address payable",
          "name": "destination",
          "type": "address"
        }
      ],
      "name": "create",
      "outputs": [
        {
          "internalType": "contract Forwarder",
          "name": "forwarder",
          "type": "address"
        }
      ],
      "stateMutability": "nonpayable",
      "type": "function"
    }
  ],
  "bytecode": "0x608060405234801561001057600080fd5b50610564806100206000396000f3fe608060405234801561001057600080fd5b506004361061002b5760003560e01c80639ed9331814610030575b600080fd5b6100726004803603602081101561004657600080fd5b81019080803573ffffffffffffffffffffffffffffffffffffffff16906020019092919050505061009e565b604051808273ffffffffffffffffffffffffffffffffffffffff16815260200191505060405180910390f35b600080826040516100ae90610140565b808273ffffffffffffffffffffffffffffffffffffffff168152602001915050604051809103906000f0801580156100ea573d6000803e3d6000fd5b5090507f6a1722b151fa6ee2129092224b7b96addf678f7981115ec5867d03fd820a415881604051808273ffffffffffffffffffffffffffffffffffffffff16815260200191505060405180910390a150919050565b6103e18061014e8339019056fe608060405234801561001057600080fd5b506040516103e13803806103e18339818101604052602081101561003357600080fd5b8101908080519060200190929190505050806000806101000a81548173ffffffffffffffffffffffffffffffffffffffff021916908373ffffffffffffffffffffffffffffffffffffffff1602179055505061034d806100946000396000f3fe6080604052600436106100385760003560e01c80633ef13367146100445780636b9f96ea14610095578063b269681d146100ac5761003f565b3661003f57005b600080fd5b34801561005057600080fd5b506100936004803603602081101561006757600080fd5b81019080803573ffffffffffffffffffffffffffffffffffffffff1690602001909291905050506100ed565b005b3480156100a157600080fd5b506100aa61028a565b005b3480156100b857600080fd5b506100c16102f3565b604051808273ffffffffffffffffffffffffffffffffffffffff16815260200191505060405180910390f35b6000819050600030905060008273ffffffffffffffffffffffffffffffffffffffff166370a08231836040518263ffffffff1660e01b8152600401808273ffffffffffffffffffffffffffffffffffffffff16815260200191505060206040518083038186803b15801561016057600080fd5b505afa158015610174573d6000803e3d6000fd5b505050506040513d602081101561018a57600080fd5b8101908080519060200190929190505050905060008114156101ae57505050610287565b8273ffffffffffffffffffffffffffffffffffffffff1663a9059cbb60008054906101000a900473ffffffffffffffffffffffffffffffffffffffff16836040518363ffffffff1660e01b8152600401808373ffffffffffffffffffffffffffffffffffffffff16815260200182815260200192505050602060405180830381600087803b15801561023f57600080fd5b505af1158015610253573d6000803e3d6000fd5b505050506040513d602081101561026957600080fd5b810190808051906020019092919050505061028357600080fd5b5050505b50565b60008054906101000a900473ffffffffffffffffffffffffffffffffffffffff1673ffffffffffffffffffffffffffffffffffffffff166108fc479081150290604051600060405180830381858888f193505050501580156102f0573d6000803e3d6000fd5b50565b60008054906101000a900473ffffffffffffffffffffffffffffffffffffffff168156fea2646970667358221220fff66a39c6b0ada8a050c69328fdafae4344efc4243be6cf01a3050e8c65b75464736f6c63430007050033a26469706673582212208e0e29344034f681f9ce436182446f2e7b614f4aace6958e4d7a0268214734cc64736f6c63430007050033",
  "immutableReferences": {},
  "source": "pragma solidity ^0.7.0;\n\nimport \"./Forwarder.sol\";\n\ncontract ForwarderFactory {\n  event ForwarderCreated(address forwarderAddress);\n\n  function create(address payable destination) public returns (Forwarder forwarder) {\n    Forwarder forwarder = new Forwarder(destination);\n    emit ForwarderCreated(address(forwarder));\n  }\n}\n",
  "sourcePath": "/Users/ciminuv/code/ForwarderContract/contracts/ForwarderFactory.sol",
  "compiler": {
    "name": "solc",
    "version": "0.7.5+commit.eb77ed08.Emscripten.clang"
  },
  "schemaVersion": "3.3.2",
  "updatedAt": "2020-11-21T08:18:16.684Z",
  "devdoc": {
    "kind": "dev",
    "methods": {},
    "version": 1
  },
  "userdoc": {
    "kind": "user",
    "methods": {},
    "version": 1
  }
}